:100000000C942A000C9434000C9434000C943400AA
:100010000C9434000C9434000C9434000C94340090
:100020000C9434000C9434000C9434000C94340080
:100030000C9434000C9434000C9434000C94340070
:100040000C9434000C9434000C9434000C94340060
:100050000C94340011241FBECFE5D4E0DEBFCDBF29
:100060000E9436000C9446000C94000081B3877FF8
:1000700081BB81B3846081BB839B04C082B38460F5
:1000800082BBFACF82B38B7F82BBF6CFF894FFCFCF
:00000001FF
