:03000000020A0AE7
:0C0A0A00787FE4F6D8FD758110020880AA
:10080000425554544F4E205052455353454400488E
:10081000454C4C4F2048554D414E2100535953549F
:10082000454D2052454144592100434F4D50414EC2
:10083000494F4E20524F424F540048454C4C4F2197
:100840002100486F772061726520796F753F0047FE
:100850004F4F44204D4F524E494E4700486F77202E
:1008600077617320736C6565703F00484156452081
:1008700046554E21210053746179207361666500ED
:1008DF00D2A17F027E001208FAC2A1E9C454F0FF30
:0B08EF00E5A0540F4FF5A0D2A17F023E
:1008FA00E4FDFCC3ED9FEC9E5015E4FBFA0BBB0034
:0F090A00010ABA04F8BBFBF50DBD00010C80E437
:0109190022BB
:0709A7007F011209AE7F8001
:1009AE00A907E954F0FFE5A0540F4FF5A0C2A0121D
:0509BE0008DFC2A122C8
:1009F500A907E954F0FFE5A0540F4FF5A0D2A012C6
:050A050008DFC2A12280
:100982008B0E8A0F8910AB0EAA0FA9101209DC6018
:10099200130510E5107002050F14F91209DCFF129D
:0509A20009F580E222CE
:1009C3007F021209AE7F281209AE7F0C1209AE7F97
:0909D300061209AE7F010209AE13
:06091A008B088A09890A1E
:100920001209A7AB08AA09A90A1209827FC01209F5
:10093000AEAB0BAA0CA90D12098290000020B710D3
:100940007F0A7E001208FAA3E58264C8458370ED31
:010950002284
:10095100C291C292D2901209A77BFF7A0879001244
:1009610009827FC01209AE7BFF7A08790F120982D2
:100971007FF47E011208FAC29020B7FDD291C29293
:010981002253
:100880001209C3D291C292C290750BFF750C087504
:100890000D2A7BFF7A08791C12091A30B703120956
:1008A00051750BFF750C08750D427BFF7A08793A7C
:1008B00012091A20B7E5750BFF750C08750D5C7BE6
:1008C000FF7A08794F12091A20B7D0750BFF750C03
:0F08D00008750D767BFF7A08796B12091A80BCC8
:1009DC00BB010689828A83E0225002E722BBFE0219
:0909EC00E32289828A83E493224C
:00000001FF
